{
  "_format": "hh-sol-artifact-1",
  "contractName": "Vault",
  "sourceName": "contracts/Vault.sol",
  "abi": [
    {
      "inputs": [],
      "stateMutability": "nonpayable",
      "type": "constructor"
    },
    {
      "inputs": [
        {
          "internalType": "string",
          "name": "",
          "type": "string"
        }
      ],
      "name": "balances",
      "outputs": [
        {
          "internalType": "uint256",
          "name": "",
          "type": "uint256"
        }
      ],
      "stateMutability": "view",
      "type": "function"
    },
    {
      "inputs": [
        {
          "internalType": "string",
          "name": "name",
          "type": "string"
        }
      ],
      "name": "createCompany",
      "outputs": [],
      "stateMutability": "nonpayable",
      "type": "function"
    },
    {
      "inputs": [
        {
          "internalType": "string",
          "name": "name",
          "type": "string"
        }
      ],
      "name": "deposit",
      "outputs": [],
      "stateMutability": "payable",
      "type": "function"
    },
    {
      "inputs": [
        {
          "internalType": "uint256",
          "name": "amount",
          "type": "uint256"
        },
        {
          "internalType": "string",
          "name": "name",
          "type": "string"
        }
      ],
      "name": "distribute",
      "outputs": [],
      "stateMutability": "nonpayable",
      "type": "function"
    },
    {
      "inputs": [
        {
          "internalType": "string",
          "name": "name",
          "type": "string"
        }
      ],
      "name": "getBalance",
      "outputs": [
        {
          "internalType": "uint256",
          "name": "",
          "type": "uint256"
        }
      ],
      "stateMutability": "view",
      "type": "function"
    },
    {
      "inputs": [],
      "name": "getCompanies",
      "outputs": [
        {
          "internalType": "string[]",
          "name": "",
          "type": "string[]"
        }
      ],
      "stateMutability": "view",
      "type": "function"
    },
    {
      "stateMutability": "payable",
      "type": "receive"
    }
  ],
  "bytecode": "0x6080604052600060025534801561001557600080fd5b506109d3806100256000396000f3fe6080604052600436106100595760003560e01c80630c0b6691146100655780632afd97a4146100905780633a51d246146100cd57806389ad70401461010a578063a26e118614610133578063fd7f611e1461014f57610060565b3661006057005b600080fd5b34801561007157600080fd5b5061007a610178565b60405161008791906105c0565b60405180910390f35b34801561009c57600080fd5b506100b760048036038101906100b2919061072b565b610251565b6040516100c4919061078d565b60405180910390f35b3480156100d957600080fd5b506100f460048036038101906100ef919061072b565b61027f565b604051610101919061078d565b60405180910390f35b34801561011657600080fd5b50610131600480360381019061012c91906107d4565b6102a7565b005b61014d6004803603810190610148919061072b565b610327565b005b34801561015b57600080fd5b506101766004803603810190610171919061072b565b61035f565b005b60606000805480602002602001604051908101604052809291908181526020016000905b828210156102485783829060005260206000200180546101bb9061085f565b80601f01602080910402602001604051908101604052809291908181526020018280546101e79061085f565b80156102345780601f1061020957610100808354040283529160200191610234565b820191906000526020600020905b81548152906001019060200180831161021757829003601f168201915b50505050508152602001906001019061019c565b50505050905090565b6001818051602081018201805184825260208301602085012081835280955050505050506000915090505481565b600060018260405161029191906108cd565b9081526020016040518091039020549050919050565b816001826040516102b891906108cd565b908152602001604051809103902060008282546102d59190610913565b925050819055503373ffffffffffffffffffffffffffffffffffffffff166108fc839081150290604051600060405180830381858888f19350505050158015610322573d6000803e3d6000fd5b505050565b3460018260405161033891906108cd565b908152602001604051809103902060008282546103559190610947565b9250508190555050565b60008190806001815401808255809150506001900390600052602060002001600090919091909150908051906020019061039a9291906103c2565b5060006001826040516103ad91906108cd565b90815260200160405180910390208190555050565b8280546103ce9061085f565b90600052602060002090601f0160209004810192826103f05760008555610437565b82601f1061040957805160ff1916838001178555610437565b82800160010185558215610437579182015b8281111561043657825182559160200191906001019061041b565b5b5090506104449190610448565b5090565b5b80821115610461576000816000905550600101610449565b5090565b600081519050919050565b600082825260208201905092915050565b6000819050602082019050919050565b600081519050919050565b600082825260208201905092915050565b60005b838110156104cb5780820151818401526020810190506104b0565b838111156104da576000848401525b50505050565b6000601f19601f8301169050919050565b60006104fc82610491565b610506818561049c565b93506105168185602086016104ad565b61051f816104e0565b840191505092915050565b600061053683836104f1565b905092915050565b6000602082019050919050565b600061055682610465565b6105608185610470565b93508360208202850161057285610481565b8060005b858110156105ae578484038952815161058f858261052a565b945061059a8361053e565b925060208a01995050600181019050610576565b50829750879550505050505092915050565b600060208201905081810360008301526105da818461054b565b905092915050565b6000604051905090565b600080fd5b600080fd5b600080fd5b600080fd5b7f4e487b7100000000000000000000000000000000000000000000000000000000600052604160045260246000fd5b610638826104e0565b810181811067ffffffffffffffff8211171561065757610656610600565b5b80604052505050565b600061066a6105e2565b9050610676828261062f565b919050565b600067ffffffffffffffff82111561069657610695610600565b5b61069f826104e0565b9050602081019050919050565b82818337600083830152505050565b60006106ce6106c98461067b565b610660565b9050828152602081018484840111156106ea576106e96105fb565b5b6106f58482856106ac565b509392505050565b600082601f830112610712576107116105f6565b5b81356107228482602086016106bb565b91505092915050565b600060208284031215610741576107406105ec565b5b600082013567ffffffffffffffff81111561075f5761075e6105f1565b5b61076b848285016106fd565b91505092915050565b6000819050919050565b61078781610774565b82525050565b60006020820190506107a2600083018461077e565b92915050565b6107b181610774565b81146107bc57600080fd5b50565b6000813590506107ce816107a8565b92915050565b600080604083850312156107eb576107ea6105ec565b5b60006107f9858286016107bf565b925050602083013567ffffffffffffffff81111561081a576108196105f1565b5b610826858286016106fd565b9150509250929050565b7f4e487b7100000000000000000000000000000000000000000000000000000000600052602260045260246000fd5b6000600282049050600182168061087757607f821691505b6020821081141561088b5761088a610830565b5b50919050565b600081905092915050565b60006108a782610491565b6108b18185610891565b93506108c18185602086016104ad565b80840191505092915050565b60006108d9828461089c565b915081905092915050565b7f4e487b7100000000000000000000000000000000000000000000000000000000600052601160045260246000fd5b600061091e82610774565b915061092983610774565b92508282101561093c5761093b6108e4565b5b828203905092915050565b600061095282610774565b915061095d83610774565b9250827fffffffffffffffffffffffffffffffffffffffffffffffffffffffffffffffff03821115610992576109916108e4565b5b82820190509291505056fea264697066735822122012c648297a860bdbe75eb9d2a33cde400581f57e52a0f6c32c6bf30074ce0a1f64736f6c63430008090033",
  "linkReferences": {},
  "deployedLinkReferences": {}
}